5190B33871807999220403      ADMINISTRACIONES CATAPUN S.L.                               20480000            CAJA DE AHORROS DE ASTURIAS                          *
5390H33795725000      050403COMUNIDAD DE PROPIESTARIOS NUMERO 1     20480125**0000012224                                                                         *
5690H337957250000000004300663-6/D M/ CONCEPCION LODOS LODO          20480050**00001807280000003491                CUOTA ABRIL 2002....................... 1      *
5890H33795725000                                                                        0000003491      00000000010000000003                                     *
5390E33630872000      050403COMUNIDAD DE PROPIESTARIOS NUMERO 2     20480003**0000017115                                                                         *
5690E336308720000000004300279/C M/PAZ HUARLE VELASCO                00490860**00090067290000008021                CUOTA ABRIL 2002....................... 1      *
5890E33630872000                                                                        0000008021      00000000010000000003                                     *
5390H33781006000      050403COMUNIDAD DE PROPIESTARIOS NUMERO 3     20480120**0000016283                                                                         *
5690H337810060000000430028/19/B GUZMAN CASTRO CARRO                 01822807**00000069850000002825                CUOTA ABRIL 2002....................... 5      *
5890H33781006000                                                                        0000002825      00000000010000000003                                     *
5390H33477480001      050403COMUNIDAD DE PROPIESTARIOS NUMERO 4     20480123**0000008490                                                                         *
5690H33477480001000000430084GARAJE /2,73// MAR DE SALINAS           20480123**00000094800000012147                CUOTA ABRIL 2002....................... 1      *
5690H33477480001000000430088COMERCIALES Y OBRADORES ASTURI          01184047**00000216060000000849                CUOTA ABRIL 2002....................... 1      *
5690H33477480001000000430090COMERCIALES Y OBRADORES ASTURI          01184047**00000216060000000803                CUOTA ABRIL 2002....................... 1      *
5890H33477480001                                                                        0000013799      00000000030000000005                                     *
5390H33858630000      050403COMUNIDAD DE PROPIESTARIOS NUMERO 5     20480136**0000013393                                                                         *
5690H338586300000000430001/01/A MONSERRAT GONZALEZ RUFO             01820600**00002950050000004955                CUOTA ABRIL 2002....................... 1      *
5890H33858630000                                                                        0000004955      00000000010000000003                                     *
5390H33128604333      050403COMUNIDAD DE PROPIESTARIOS NUMERO 6     10480140**0000010144                                                                         *
5690H331286043330000430020/28/C JULIO GARRIDO ALVAREZ               01184077**00010119020000001624                3ER.PZ.DERRAMA TRABAJOS PINTURA........ 1      *
5890H33128604333                                                                        0000001624      00000000010000000003                                     *
5390H33781016333      050403COMUNIDAD DE PROPIESTARIOS NUMERO 7     10480120**0000016283                                                                         *
5690H337810163330000430028/19/B GUZMAN CASTRO CARRO                 01822800**00000069850000001651                CONSUMO AGUA FEBRERO 2002.............. 5      *
5890H33781016333                                                                        0000001651      00000000010000000003                                     *
5990B33871807999                                                                        0000036366      00000000090000000025                                     *
